{
  "_format": "hh-sol-artifact-1",
  "contractName": "BasicNeedsUnitToken",
  "sourceName": "contracts/BasicNeedsUnitToken.sol",
  "abi": [
    {
      "inputs": [],
      "stateMutability": "nonpayable",
      "type": "constructor"
    },
    {
      "inputs": [
        {
          "internalType": "address",
          "name": "target",
          "type": "address"
        }
      ],
      "name": "AddressEmptyCode",
      "type": "error"
    },
    {
      "inputs": [
        {
          "internalType": "address",
          "name": "implementation",
          "type": "address"
        }
      ],
      "name": "ERC1967InvalidImplementation",
      "type": "error"
    },
    {
      "inputs": [],
      "name": "ERC1967NonPayable",
      "type": "error"
    },
    {
      "inputs": [
        {
          "internalType": "address",
          "name": "spender",
          "type": "address"
        },
        {
          "internalType": "uint256",
          "name": "allowance",
          "type": "uint256"
        },
        {
          "internalType": "uint256",
          "name": "needed",
          "type": "uint256"
        }
      ],
      "name": "ERC20InsufficientAllowance",
      "type": "error"
    },
    {
      "inputs": [
        {
          "internalType": "address",
          "name": "sender",
          "type": "address"
        },
        {
          "internalType": "uint256",
          "name": "balance",
          "type": "uint256"
        },
        {
          "internalType": "uint256",
          "name": "needed",
          "type": "uint256"
        }
      ],
      "name": "ERC20InsufficientBalance",
      "type": "error"
    },
    {
      "inputs": [
        {
          "internalType": "address",
          "name": "approver",
          "type": "address"
        }
      ],
      "name": "ERC20InvalidApprover",
      "type": "error"
    },
    {
      "inputs": [
        {
          "internalType": "address",
          "name": "receiver",
          "type": "address"
        }
      ],
      "name": "ERC20InvalidReceiver",
      "type": "error"
    },
    {
      "inputs": [
        {
          "internalType": "address",
          "name": "sender",
          "type": "address"
        }
      ],
      "name": "ERC20InvalidSender",
      "type": "error"
    },
    {
      "inputs": [
        {
          "internalType": "address",
          "name": "spender",
          "type": "address"
        }
      ],
      "name": "ERC20InvalidSpender",
      "type": "error"
    },
    {
      "inputs": [],
      "name": "FailedCall",
      "type": "error"
    },
    {
      "inputs": [],
      "name": "InvalidInitialization",
      "type": "error"
    },
    {
      "inputs": [],
      "name": "NotInitializing",
      "type": "error"
    },
    {
      "inputs": [
        {
          "internalType": "address",
          "name": "owner",
          "type": "address"
        }
      ],
      "name": "OwnableInvalidOwner",
      "type": "error"
    },
    {
      "inputs": [
        {
          "internalType": "address",
          "name": "account",
          "type": "address"
        }
      ],
      "name": "OwnableUnauthorizedAccount",
      "type": "error"
    },
    {
      "inputs": [],
      "name": "UUPSUnauthorizedCallContext",
      "type": "error"
    },
    {
      "inputs": [
        {
          "internalType": "bytes32",
          "name": "slot",
          "type": "bytes32"
        }
      ],
      "name": "UUPSUnsupportedProxiableUUID",
      "type": "error"
    },
    {
      "anonymous": false,
      "inputs": [
        {
          "indexed": true,
          "internalType": "address",
          "name": "owner",
          "type": "address"
        },
        {
          "indexed": true,
          "internalType": "address",
          "name": "spender",
          "type": "address"
        },
        {
          "indexed": false,
          "internalType": "uint256",
          "name": "value",
          "type": "uint256"
        }
      ],
      "name": "Approval",
      "type": "event"
    },
    {
      "anonymous": false,
      "inputs": [
        {
          "indexed": false,
          "internalType": "uint64",
          "name": "version",
          "type": "uint64"
        }
      ],
      "name": "Initialized",
      "type": "event"
    },
    {
      "anonymous": false,
      "inputs": [
        {
          "indexed": true,
          "internalType": "address",
          "name": "previousOwner",
          "type": "address"
        },
        {
          "indexed": true,
          "internalType": "address",
          "name": "newOwner",
          "type": "address"
        }
      ],
      "name": "OwnershipTransferred",
      "type": "event"
    },
    {
      "anonymous": false,
      "inputs": [
        {
          "indexed": true,
          "internalType": "address",
          "name": "from",
          "type": "address"
        },
        {
          "indexed": true,
          "internalType": "address",
          "name": "to",
          "type": "address"
        },
        {
          "indexed": false,
          "internalType": "uint256",
          "name": "value",
          "type": "uint256"
        }
      ],
      "name": "Transfer",
      "type": "event"
    },
    {
      "anonymous": false,
      "inputs": [
        {
          "indexed": true,
          "internalType": "address",
          "name": "implementation",
          "type": "address"
        }
      ],
      "name": "Upgraded",
      "type": "event"
    },
    {
      "inputs": [],
      "name": "UPGRADE_INTERFACE_VERSION",
      "outputs": [
        {
          "internalType": "string",
          "name": "",
          "type": "string"
        }
      ],
      "stateMutability": "view",
      "type": "function"
    },
    {
      "inputs": [
        {
          "internalType": "address",
          "name": "owner",
          "type": "address"
        },
        {
          "internalType": "address",
          "name": "spender",
          "type": "address"
        }
      ],
      "name": "allowance",
      "outputs": [
        {
          "internalType": "uint256",
          "name": "",
          "type": "uint256"
        }
      ],
      "stateMutability": "view",
      "type": "function"
    },
    {
      "inputs": [
        {
          "internalType": "address",
          "name": "spender",
          "type": "address"
        },
        {
          "internalType": "uint256",
          "name": "value",
          "type": "uint256"
        }
      ],
      "name": "approve",
      "outputs": [
        {
          "internalType": "bool",
          "name": "",
          "type": "bool"
        }
      ],
      "stateMutability": "nonpayable",
      "type": "function"
    },
    {
      "inputs": [
        {
          "internalType": "address",
          "name": "account",
          "type": "address"
        }
      ],
      "name": "balanceOf",
      "outputs": [
        {
          "internalType": "uint256",
          "name": "",
          "type": "uint256"
        }
      ],
      "stateMutability": "view",
      "type": "function"
    },
    {
      "inputs": [],
      "name": "decimals",
      "outputs": [
        {
          "internalType": "uint8",
          "name": "",
          "type": "uint8"
        }
      ],
      "stateMutability": "view",
      "type": "function"
    },
    {
      "inputs": [],
      "name": "initialize",
      "outputs": [],
      "stateMutability": "nonpayable",
      "type": "function"
    },
    {
      "inputs": [
        {
          "internalType": "address",
          "name": "to",
          "type": "address"
        },
        {
          "internalType": "uint256",
          "name": "amount",
          "type": "uint256"
        }
      ],
      "name": "mintTo",
      "outputs": [],
      "stateMutability": "nonpayable",
      "type": "function"
    },
    {
      "inputs": [],
      "name": "name",
      "outputs": [
        {
          "internalType": "string",
          "name": "",
          "type": "string"
        }
      ],
      "stateMutability": "view",
      "type": "function"
    },
    {
      "inputs": [],
      "name": "owner",
      "outputs": [
        {
          "internalType": "address",
          "name": "",
          "type": "address"
        }
      ],
      "stateMutability": "view",
      "type": "function"
    },
    {
      "inputs": [],
      "name": "proxiableUUID",
      "outputs": [
        {
          "internalType": "bytes32",
          "name": "",
          "type": "bytes32"
        }
      ],
      "stateMutability": "view",
      "type": "function"
    },
    {
      "inputs": [],
      "name": "renounceOwnership",
      "outputs": [],
      "stateMutability": "nonpayable",
      "type": "function"
    },
    {
      "inputs": [
        {
          "internalType": "enum BasicNeedsUnitToken.Resources",
          "name": "",
          "type": "uint8"
        }
      ],
      "name": "resourceRatios",
      "outputs": [
        {
          "internalType": "uint256",
          "name": "",
          "type": "uint256"
        }
      ],
      "stateMutability": "view",
      "type": "function"
    },
    {
      "inputs": [],
      "name": "symbol",
      "outputs": [
        {
          "internalType": "string",
          "name": "",
          "type": "string"
        }
      ],
      "stateMutability": "view",
      "type": "function"
    },
    {
      "inputs": [],
      "name": "totalSupply",
      "outputs": [
        {
          "internalType": "uint256",
          "name": "",
          "type": "uint256"
        }
      ],
      "stateMutability": "view",
      "type": "function"
    },
    {
      "inputs": [
        {
          "internalType": "address",
          "name": "to",
          "type": "address"
        },
        {
          "internalType": "uint256",
          "name": "value",
          "type": "uint256"
        }
      ],
      "name": "transfer",
      "outputs": [
        {
          "internalType": "bool",
          "name": "",
          "type": "bool"
        }
      ],
      "stateMutability": "nonpayable",
      "type": "function"
    },
    {
      "inputs": [
        {
          "internalType": "address",
          "name": "from",
          "type": "address"
        },
        {
          "internalType": "address",
          "name": "to",
          "type": "address"
        },
        {
          "internalType": "uint256",
          "name": "value",
          "type": "uint256"
        }
      ],
      "name": "transferFrom",
      "outputs": [
        {
          "internalType": "bool",
          "name": "",
          "type": "bool"
        }
      ],
      "stateMutability": "nonpayable",
      "type": "function"
    },
    {
      "inputs": [
        {
          "internalType": "address",
          "name": "newOwner",
          "type": "address"
        }
      ],
      "name": "transferOwnership",
      "outputs": [],
      "stateMutability": "nonpayable",
      "type": "function"
    },
    {
      "inputs": [
        {
          "internalType": "uint256",
          "name": "newRatio",
          "type": "uint256"
        },
        {
          "internalType": "enum BasicNeedsUnitToken.Resources",
          "name": "resource",
          "type": "uint8"
        }
      ],
      "name": "updateResourceData",
      "outputs": [],
      "stateMutability": "nonpayable",
      "type": "function"
    },
    {
      "inputs": [
        {
          "internalType": "address",
          "name": "newImplementation",
          "type": "address"
        },
        {
          "internalType": "bytes",
          "name": "data",
          "type": "bytes"
        }
      ],
      "name": "upgradeToAndCall",
      "outputs": [],
      "stateMutability": "payable",
      "type": "function"
    }
  ],
  "bytecode": "0x60a06040523073ffffffffffffffffffffffffffffffffffffffff1660809073ffffffffffffffffffffffffffffffffffffffff1681525034801561004357600080fd5b5061005261005760201b60201c565b6101de565b600061006761015b60201b60201c565b90508060000160089054906101000a900460ff16156100b2576040517ff92ee8a900000000000000000000000000000000000000000000000000000000815260040160405180910390fd5b67ffffffffffffffff80168160000160009054906101000a900467ffffffffffffffff1667ffffffffffffffff16146101585767ffffffffffffffff8160000160006101000a81548167ffffffffffffffff021916908367ffffffffffffffff1602179055507fc7f505b2f371ae2175ee4913f4499e1f2633a7b5936321eed1cdaeb6115181d267ffffffffffffffff60405161014f91906101c3565b60405180910390a15b50565b60008061016c61017560201b60201c565b90508091505090565b60007ff0c57e16840df040f15088dc2f81fe391c3923bec73e23a9662efc9c229c6a0060001b905090565b600067ffffffffffffffff82169050919050565b6101bd816101a0565b82525050565b60006020820190506101d860008301846101b4565b92915050565b6080516124ed61020760003960008181610e0201528181610e57015261101201526124ed6000f3fe6080604052600436106101145760003560e01c80635316ce01116100a057806395d89b411161006457806395d89b4114610380578063a9059cbb146103ab578063ad3cb1cc146103e8578063dd62ed3e14610413578063f2fde38b1461045057610114565b80635316ce01146102ad57806370a08231146102ea578063715018a6146103275780638129fc1c1461033e5780638da5cb5b1461035557610114565b806323b872dd116100e757806323b872dd146101d5578063313ce56714610212578063449a52f81461023d5780634f1ef2861461026657806352d1902d1461028257610114565b806306fdde0314610119578063095ea7b31461014457806318160ddd1461018157806318468650146101ac575b600080fd5b34801561012557600080fd5b5061012e610479565b60405161013b9190611b0d565b60405180910390f35b34801561015057600080fd5b5061016b60048036038101906101669190611bd7565b61051a565b6040516101789190611c32565b60405180910390f35b34801561018d57600080fd5b5061019661053d565b6040516101a39190611c5c565b60405180910390f35b3480156101b857600080fd5b506101d360048036038101906101ce9190611c9c565b610555565b005b3480156101e157600080fd5b506101fc60048036038101906101f79190611cdc565b61059d565b6040516102099190611c32565b60405180910390f35b34801561021e57600080fd5b506102276105cc565b6040516102349190611d4b565b60405180910390f35b34801561024957600080fd5b50610264600480360381019061025f9190611bd7565b6105d5565b005b610280600480360381019061027b9190611e9b565b6105eb565b005b34801561028e57600080fd5b5061029761060a565b6040516102a49190611f10565b60405180910390f35b3480156102b957600080fd5b506102d460048036038101906102cf9190611f2b565b61063d565b6040516102e19190611c5c565b60405180910390f35b3480156102f657600080fd5b50610311600480360381019061030c9190611f58565b610655565b60405161031e9190611c5c565b60405180910390f35b34801561033357600080fd5b5061033c6106ac565b005b34801561034a57600080fd5b506103536106c0565b005b34801561036157600080fd5b5061036a6108dc565b6040516103779190611f94565b60405180910390f35b34801561038c57600080fd5b50610395610914565b6040516103a29190611b0d565b60405180910390f35b3480156103b757600080fd5b506103d260048036038101906103cd9190611bd7565b6109b5565b6040516103df9190611c32565b60405180910390f35b3480156103f457600080fd5b506103fd6109d8565b60405161040a9190611b0d565b60405180910390f35b34801561041f57600080fd5b5061043a60048036038101906104359190611faf565b610a11565b6040516104479190611c5c565b60405180910390f35b34801561045c57600080fd5b5061047760048036038101906104729190611f58565b610aa6565b005b60606000610485610b2c565b90508060030180546104969061201e565b80601f01602080910402602001604051908101604052809291908181526020018280546104c29061201e565b801561050f5780601f106104e45761010080835404028352916020019161050f565b820191906000526020600020905b8154815290600101906020018083116104f257829003601f168201915b505050505091505090565b600080610525610b54565b9050610532818585610b5c565b600191505092915050565b600080610548610b2c565b9050806002015491505090565b61055d610b6e565b81600160008360058111156105755761057461204f565b5b60058111156105875761058661204f565b5b8152602001908152602001600020819055505050565b6000806105a8610b54565b90506105b5858285610bf5565b6105c0858585610c8a565b60019150509392505050565b60006012905090565b6105dd610b6e565b6105e78282610d7e565b5050565b6105f3610e00565b6105fc82610ee6565b6106068282610ef1565b5050565b6000610614611010565b7f360894a13ba1a3210667c828492db98dca3e2076cc3735a920a3ca505d382bbc60001b905090565b60016020528060005260406000206000915090505481565b600080610660610b2c565b90508060000160008473ffffffffffffffffffffffffffffffffffffffff1673ffffffffffffffffffffffffffffffffffffffff16815260200190815260200160002054915050919050565b6106b4610b6e565b6106be6000611097565b565b60006106ca61116e565b905060008160000160089054906101000a900460ff1615905060008260000160009054906101000a900467ffffffffffffffff1690506000808267ffffffffffffffff161480156107185750825b9050600060018367ffffffffffffffff1614801561074d575060003073ffffffffffffffffffffffffffffffffffffffff163b145b90508115801561075b575080155b15610792576040517ff92ee8a900000000000000000000000000000000000000000000000000000000815260040160405180910390fd5b60018560000160006101000a81548167ffffffffffffffff021916908367ffffffffffffffff16021790555083156107e25760018560000160086101000a81548160ff0219169083151502179055505b6108566040518060400160405280600981526020017f436f7374546f6b656e00000000000000000000000000000000000000000000008152506040518060400160405280600481526020017f434f4c5400000000000000000000000000000000000000000000000000000000815250611182565b61085f33611198565b61087233683635c9adc5dea00000610d7e565b6000808190555083156108d55760008560000160086101000a81548160ff0219169083151502179055507fc7f505b2f371ae2175ee4913f4499e1f2633a7b5936321eed1cdaeb6115181d260016040516108cc91906120d7565b60405180910390a15b5050505050565b6000806108e76111ac565b90508060000160009054906101000a900473ffffffffffffffffffffffffffffffffffffffff1691505090565b60606000610920610b2c565b90508060040180546109319061201e565b80601f016020809104026020016040519081016040528092919081815260200182805461095d9061201e565b80156109aa5780601f1061097f576101008083540402835291602001916109aa565b820191906000526020600020905b81548152906001019060200180831161098d57829003601f168201915b505050505091505090565b6000806109c0610b54565b90506109cd818585610c8a565b600191505092915050565b6040518060400160405280600581526020017f352e302e3000000000000000000000000000000000000000000000000000000081525081565b600080610a1c610b2c565b90508060010160008573ffffffffffffffffffffffffffffffffffffffff1673ffffffffffffffffffffffffffffffffffffffff16815260200190815260200160002060008473ffffffffffffffffffffffffffffffffffffffff1673ffffffffffffffffffffffffffffffffffffffff1681526020019081526020016000205491505092915050565b610aae610b6e565b600073ffffffffffffffffffffffffffffffffffffffff168173ffffffffffffffffffffffffffffffffffffffff1603610b205760006040517f1e4fbdf7000000000000000000000000000000000000000000000000000000008152600401610b179190611f94565b60405180910390fd5b610b2981611097565b50565b60007f52c63247e1f47db19d5ce0460030c497f067ca4cebf71ba98eeadabe20bace00905090565b600033905090565b610b6983838360016111d4565b505050565b610b76610b54565b73ffffffffffffffffffffffffffffffffffffffff16610b946108dc565b73ffffffffffffffffffffffffffffffffffffffff1614610bf357610bb7610b54565b6040517f118cdaa7000000000000000000000000000000000000000000000000000000008152600401610bea9190611f94565b60405180910390fd5b565b6000610c018484610a11565b90507fffffffffffffffffffffffffffffffffffffffffffffffffffffffffffffffff811015610c845781811015610c74578281836040517ffb8f41b2000000000000000000000000000000000000000000000000000000008152600401610c6b939291906120f2565b60405180910390fd5b610c83848484840360006111d4565b5b50505050565b600073ffffffffffffffffffffffffffffffffffffffff168373ffffffffffffffffffffffffffffffffffffffff1603610cfc5760006040517f96c6fd1e000000000000000000000000000000000000000000000000000000008152600401610cf39190611f94565b60405180910390fd5b600073ffffffffffffffffffffffffffffffffffffffff168273ffffffffffffffffffffffffffffffffffffffff1603610d6e5760006040517fec442f05000000000000000000000000000000000000000000000000000000008152600401610d659190611f94565b60405180910390fd5b610d798383836113ba565b505050565b600073ffffffffffffffffffffffffffffffffffffffff168273ffffffffffffffffffffffffffffffffffffffff1603610df05760006040517fec442f05000000000000000000000000000000000000000000000000000000008152600401610de79190611f94565b60405180910390fd5b610dfc600083836113ba565b5050565b7f000000000000000000000000000000000000000000000000000000000000000073ffffffffffffffffffffffffffffffffffffffff163073ffffffffffffffffffffffffffffffffffffffff161480610ead57507f000000000000000000000000000000000000000000000000000000000000000073ffffffffffffffffffffffffffffffffffffffff16610e946115f9565b73ffffffffffffffffffffffffffffffffffffffff1614155b15610ee4576040517fe07c8dba00000000000000000000000000000000000000000000000000000000815260040160405180910390fd5b565b610eee610b6e565b50565b8173ffffffffffffffffffffffffffffffffffffffff166352d1902d6040518163ffffffff1660e01b8152600401602060405180830381865afa925050508015610f5957506040513d601f19601f82011682018060405250810190610f569190612155565b60015b610f9a57816040517f4c9c8ce3000000000000000000000000000000000000000000000000000000008152600401610f919190611f94565b60405180910390fd5b7f360894a13ba1a3210667c828492db98dca3e2076cc3735a920a3ca505d382bbc60001b811461100157806040517faa1d49a4000000000000000000000000000000000000000000000000000000008152600401610ff89190611f10565b60405180910390fd5b61100b8383611650565b505050565b7f000000000000000000000000000000000000000000000000000000000000000073ffffffffffffffffffffffffffffffffffffffff163073ffffffffffffffffffffffffffffffffffffffff1614611095576040517fe07c8dba00000000000000000000000000000000000000000000000000000000815260040160405180910390fd5b565b60006110a16111ac565b905060008160000160009054906101000a900473ffffffffffffffffffffffffffffffffffffffff169050828260000160006101000a81548173ffffffffffffffffffffffffffffffffffffffff021916908373ffffffffffffffffffffffffffffffffffffffff1602179055508273ffffffffffffffffffffffffffffffffffffffff168173ffffffffffffffffffffffffffffffffffffffff167f8be0079c531659141344cd1fd0a4f28419497f9722a3daafe3b4186f6b6457e060405160405180910390a3505050565b6000806111796116c3565b90508091505090565b61118a6116ee565b611194828261172e565b5050565b6111a06116ee565b6111a98161176b565b50565b60007f9016d09d72d40fdae2fd8ceac6b6234c7706214fd39c1cd1e609a0528c199300905090565b60006111de610b2c565b9050600073ffffffffffffffffffffffffffffffffffffffff168573ffffffffffffffffffffffffffffffffffffffff16036112525760006040517fe602df050000000000000000000000000000000000000000000000000000000081526004016112499190611f94565b60405180910390fd5b600073ffffffffffffffffffffffffffffffffffffffff168473ffffffffffffffffffffffffffffffffffffffff16036112c45760006040517f94280d620000000000000000000000000000000000000000000000000000000081526004016112bb9190611f94565b60405180910390fd5b828160010160008773ffffffffffffffffffffffffffffffffffffffff1673ffffffffffffffffffffffffffffffffffffffff16815260200190815260200160002060008673ffffffffffffffffffffffffffffffffffffffff1673ffffffffffffffffffffffffffffffffffffffff1681526020019081526020016000208190555081156113b3578373ffffffffffffffffffffffffffffffffffffffff168573ffffffffffffffffffffffffffffffffffffffff167f8c5be1e5ebec7d5bd14f71427d1e84f3dd0314c0f7b2291e5b200ac8c7c3b925856040516113aa9190611c5c565b60405180910390a35b5050505050565b60006113c4610b2c565b9050600073ffffffffffffffffffffffffffffffffffffffff168473ffffffffffffffffffffffffffffffffffffffff160361141a578181600201600082825461140e91906121b1565b925050819055506114f3565b60008160000160008673ffffffffffffffffffffffffffffffffffffffff1673ffffffffffffffffffffffffffffffffffffffff168152602001908152602001600020549050828110156114a9578481846040517fe450d38c0000000000000000000000000000000000000000000000000000000081526004016114a0939291906120f2565b60405180910390fd5b8281038260000160008773ffffffffffffffffffffffffffffffffffffffff1673ffffffffffffffffffffffffffffffffffffffff16815260200190815260200160002081905550505b600073ffffffffffffffffffffffffffffffffffffffff168373ffffffffffffffffffffffffffffffffffffffff160361153e5781816002016000828254039250508190555061158e565b818160000160008573ffffffffffffffffffffffffffffffffffffffff1673ffffffffffffffffffffffffffffffffffffffff168152602001908152602001600020600082825401925050819055505b8273ffffffffffffffffffffffffffffffffffffffff168473ffffffffffffffffffffffffffffffffffffffff167fddf252ad1be2c89b69c2b068fc378daa952ba7f163c4a11628f55a4df523b3ef846040516115eb9190611c5c565b60405180910390a350505050565b60006116277f360894a13ba1a3210667c828492db98dca3e2076cc3735a920a3ca505d382bbc60001b6117f1565b60000160009054906101000a900473ffffffffffffffffffffffffffffffffffffffff16905090565b611659826117fb565b8173ffffffffffffffffffffffffffffffffffffffff167fbc7cd75a20ee27fd9adebab32041f755214dbc6bffa90cc0225b39da2e5c2d3b60405160405180910390a26000815111156116b6576116b082826118c8565b506116bf565b6116be61194c565b5b5050565b60007ff0c57e16840df040f15088dc2f81fe391c3923bec73e23a9662efc9c229c6a0060001b905090565b6116f6611989565b61172c576040517fd7e6bcf800000000000000000000000000000000000000000000000000000000815260040160405180910390fd5b565b6117366116ee565b6000611740610b2c565b9050828160030190816117539190612387565b50818160040190816117659190612387565b50505050565b6117736116ee565b600073ffffffffffffffffffffffffffffffffffffffff168173ffffffffffffffffffffffffffffffffffffffff16036117e55760006040517f1e4fbdf70000000000000000000000000000000000000000000000000000000081526004016117dc9190611f94565b60405180910390fd5b6117ee81611097565b50565b6000819050919050565b60008173ffffffffffffffffffffffffffffffffffffffff163b0361185757806040517f4c9c8ce300000000000000000000000000000000000000000000000000000000815260040161184e9190611f94565b60405180910390fd5b806118847f360894a13ba1a3210667c828492db98dca3e2076cc3735a920a3ca505d382bbc60001b6117f1565b60000160006101000a81548173ffffffffffffffffffffffffffffffffffffffff021916908373ffffffffffffffffffffffffffffffffffffffff16021790555050565b60606000808473ffffffffffffffffffffffffffffffffffffffff16846040516118f291906124a0565b600060405180830381855af49150503d806000811461192d576040519150601f19603f3d011682016040523d82523d6000602084013e611932565b606091505b50915091506119428583836119a9565b9250505092915050565b6000341115611987576040517fb398979f00000000000000000000000000000000000000000000000000000000815260040160405180910390fd5b565b600061199361116e565b60000160089054906101000a900460ff16905090565b6060826119be576119b982611a38565b611a30565b600082511480156119e6575060008473ffffffffffffffffffffffffffffffffffffffff163b145b15611a2857836040517f9996b315000000000000000000000000000000000000000000000000000000008152600401611a1f9190611f94565b60405180910390fd5b819050611a31565b5b9392505050565b600081511115611a4b5780518082602001fd5b6040517fd6bda27500000000000000000000000000000000000000000000000000000000815260040160405180910390fd5b600081519050919050565b600082825260208201905092915050565b60005b83811015611ab7578082015181840152602081019050611a9c565b60008484015250505050565b6000601f19601f8301169050919050565b6000611adf82611a7d565b611ae98185611a88565b9350611af9818560208601611a99565b611b0281611ac3565b840191505092915050565b60006020820190508181036000830152611b278184611ad4565b905092915050565b6000604051905090565b600080fd5b600080fd5b600073ffffffffffffffffffffffffffffffffffffffff82169050919050565b6000611b6e82611b43565b9050919050565b611b7e81611b63565b8114611b8957600080fd5b50565b600081359050611b9b81611b75565b92915050565b6000819050919050565b611bb481611ba1565b8114611bbf57600080fd5b50565b600081359050611bd181611bab565b92915050565b60008060408385031215611bee57611bed611b39565b5b6000611bfc85828601611b8c565b9250506020611c0d85828601611bc2565b9150509250929050565b60008115159050919050565b611c2c81611c17565b82525050565b6000602082019050611c476000830184611c23565b92915050565b611c5681611ba1565b82525050565b6000602082019050611c716000830184611c4d565b92915050565b60068110611c8457600080fd5b50565b600081359050611c9681611c77565b92915050565b60008060408385031215611cb357611cb2611b39565b5b6000611cc185828601611bc2565b9250506020611cd285828601611c87565b9150509250929050565b600080600060608486031215611cf557611cf4611b39565b5b6000611d0386828701611b8c565b9350506020611d1486828701611b8c565b9250506040611d2586828701611bc2565b9150509250925092565b600060ff82169050919050565b611d4581611d2f565b82525050565b6000602082019050611d606000830184611d3c565b92915050565b600080fd5b600080fd5b7f4e487b7100000000000000000000000000000000000000000000000000000000600052604160045260246000fd5b611da882611ac3565b810181811067ffffffffffffffff82111715611dc757611dc6611d70565b5b80604052505050565b6000611dda611b2f565b9050611de68282611d9f565b919050565b600067ffffffffffffffff821115611e0657611e05611d70565b5b611e0f82611ac3565b9050602081019050919050565b82818337600083830152505050565b6000611e3e611e3984611deb565b611dd0565b905082815260208101848484011115611e5a57611e59611d6b565b5b611e65848285611e1c565b509392505050565b600082601f830112611e8257611e81611d66565b5b8135611e92848260208601611e2b565b91505092915050565b60008060408385031215611eb257611eb1611b39565b5b6000611ec085828601611b8c565b925050602083013567ffffffffffffffff811115611ee157611ee0611b3e565b5b611eed85828601611e6d565b9150509250929050565b6000819050919050565b611f0a81611ef7565b82525050565b6000602082019050611f256000830184611f01565b92915050565b600060208284031215611f4157611f40611b39565b5b6000611f4f84828501611c87565b91505092915050565b600060208284031215611f6e57611f6d611b39565b5b6000611f7c84828501611b8c565b91505092915050565b611f8e81611b63565b82525050565b6000602082019050611fa96000830184611f85565b92915050565b60008060408385031215611fc657611fc5611b39565b5b6000611fd485828601611b8c565b9250506020611fe585828601611b8c565b9150509250929050565b7f4e487b7100000000000000000000000000000000000000000000000000000000600052602260045260246000fd5b6000600282049050600182168061203657607f821691505b60208210810361204957612048611fef565b5b50919050565b7f4e487b7100000000000000000000000000000000000000000000000000000000600052602160045260246000fd5b6000819050919050565b600067ffffffffffffffff82169050919050565b6000819050919050565b60006120c16120bc6120b78461207e565b61209c565b612088565b9050919050565b6120d1816120a6565b82525050565b60006020820190506120ec60008301846120c8565b92915050565b60006060820190506121076000830186611f85565b6121146020830185611c4d565b6121216040830184611c4d565b949350505050565b61213281611ef7565b811461213d57600080fd5b50565b60008151905061214f81612129565b92915050565b60006020828403121561216b5761216a611b39565b5b600061217984828501612140565b91505092915050565b7f4e487b7100000000000000000000000000000000000000000000000000000000600052601160045260246000fd5b60006121bc82611ba1565b91506121c783611ba1565b92508282019050808211156121df576121de612182565b5b92915050565b60008190508160005260206000209050919050565b60006020601f8301049050919050565b600082821b905092915050565b6000600883026122477fffffffffffffffffffffffffffffffffffffffffffffffffffffffffffffffff8261220a565b612251868361220a565b95508019841693508086168417925050509392505050565b600061228461227f61227a84611ba1565b61209c565b611ba1565b9050919050565b6000819050919050565b61229e83612269565b6122b26122aa8261228b565b848454612217565b825550505050565b600090565b6122c76122ba565b6122d2818484612295565b505050565b5b818110156122f6576122eb6000826122bf565b6001810190506122d8565b5050565b601f82111561233b5761230c816121e5565b612315846121fa565b81016020851015612324578190505b612338612330856121fa565b8301826122d7565b50505b505050565b600082821c905092915050565b600061235e60001984600802612340565b1980831691505092915050565b6000612377838361234d565b9150826002028217905092915050565b61239082611a7d565b67ffffffffffffffff8111156123a9576123a8611d70565b5b6123b3825461201e565b6123be8282856122fa565b600060209050601f8311600181146123f157600084156123df578287015190505b6123e9858261236b565b865550612451565b601f1984166123ff866121e5565b60005b8281101561242757848901518255600182019150602085019450602081019050612402565b868310156124445784890151612440601f89168261234d565b8355505b6001600288020188555050505b505050505050565b600081519050919050565b600081905092915050565b600061247a82612459565b6124848185612464565b9350612494818560208601611a99565b80840191505092915050565b60006124ac828461246f565b91508190509291505056fea2646970667358221220a00338b7aef31f89047ad8cf8907c9c80790b891aab48a21b9c0d60651909dea64736f6c634300081c0033",
  "linkReferences": {},
  "deployedLinkReferences": {}
}